{
  "_format": "hh-sol-artifact-1",
  "contractName": "Liberdus",
  "sourceName": "contracts/Liberdus.sol",
  "abi": [
    {
      "inputs": [
        {
          "internalType": "address[3]",
          "name": "_signers",
          "type": "address[3]"
        },
        {
          "internalType": "uint256",
          "name": "_chainId",
          "type": "uint256"
        }
      ],
      "stateMutability": "nonpayable",
      "type": "constructor"
    },
    {
      "inputs": [],
      "name": "ECDSAInvalidSignature",
      "type": "error"
    },
    {
      "inputs": [
        {
          "internalType": "uint256",
          "name": "length",
          "type": "uint256"
        }
      ],
      "name": "ECDSAInvalidSignatureLength",
      "type": "error"
    },
    {
      "inputs": [
        {
          "internalType": "bytes32",
          "name": "s",
          "type": "bytes32"
        }
      ],
      "name": "ECDSAInvalidSignatureS",
      "type": "error"
    },
    {
      "inputs": [
        {
          "internalType": "address",
          "name": "spender",
          "type": "address"
        },
        {
          "internalType": "uint256",
          "name": "allowance",
          "type": "uint256"
        },
        {
          "internalType": "uint256",
          "name": "needed",
          "type": "uint256"
        }
      ],
      "name": "ERC20InsufficientAllowance",
      "type": "error"
    },
    {
      "inputs": [
        {
          "internalType": "address",
          "name": "sender",
          "type": "address"
        },
        {
          "internalType": "uint256",
          "name": "balance",
          "type": "uint256"
        },
        {
          "internalType": "uint256",
          "name": "needed",
          "type": "uint256"
        }
      ],
      "name": "ERC20InsufficientBalance",
      "type": "error"
    },
    {
      "inputs": [
        {
          "internalType": "address",
          "name": "approver",
          "type": "address"
        }
      ],
      "name": "ERC20InvalidApprover",
      "type": "error"
    },
    {
      "inputs": [
        {
          "internalType": "address",
          "name": "receiver",
          "type": "address"
        }
      ],
      "name": "ERC20InvalidReceiver",
      "type": "error"
    },
    {
      "inputs": [
        {
          "internalType": "address",
          "name": "sender",
          "type": "address"
        }
      ],
      "name": "ERC20InvalidSender",
      "type": "error"
    },
    {
      "inputs": [
        {
          "internalType": "address",
          "name": "spender",
          "type": "address"
        }
      ],
      "name": "ERC20InvalidSpender",
      "type": "error"
    },
    {
      "inputs": [],
      "name": "EnforcedPause",
      "type": "error"
    },
    {
      "inputs": [],
      "name": "ExpectedPause",
      "type": "error"
    },
    {
      "inputs": [
        {
          "internalType": "address",
          "name": "owner",
          "type": "address"
        }
      ],
      "name": "OwnableInvalidOwner",
      "type": "error"
    },
    {
      "inputs": [
        {
          "internalType": "address",
          "name": "account",
          "type": "address"
        }
      ],
      "name": "OwnableUnauthorizedAccount",
      "type": "error"
    },
    {
      "inputs": [],
      "name": "ReentrancyGuardReentrantCall",
      "type": "error"
    },
    {
      "anonymous": false,
      "inputs": [
        {
          "indexed": true,
          "internalType": "address",
          "name": "owner",
          "type": "address"
        },
        {
          "indexed": true,
          "internalType": "address",
          "name": "spender",
          "type": "address"
        },
        {
          "indexed": false,
          "internalType": "uint256",
          "name": "value",
          "type": "uint256"
        }
      ],
      "name": "Approval",
      "type": "event"
    },
    {
      "anonymous": false,
      "inputs": [
        {
          "indexed": true,
          "internalType": "bytes32",
          "name": "operationId",
          "type": "bytes32"
        },
        {
          "indexed": true,
          "internalType": "address",
          "name": "newCaller",
          "type": "address"
        },
        {
          "indexed": false,
          "internalType": "uint256",
          "name": "timestamp",
          "type": "uint256"
        }
      ],
      "name": "BridgeInCallerUpdated",
      "type": "event"
    },
    {
      "anonymous": false,
      "inputs": [
        {
          "indexed": true,
          "internalType": "bytes32",
          "name": "operationId",
          "type": "bytes32"
        },
        {
          "indexed": false,
          "internalType": "uint256",
          "name": "newMaxAmount",
          "type": "uint256"
        },
        {
          "indexed": false,
          "internalType": "uint256",
          "name": "newCooldown",
          "type": "uint256"
        },
        {
          "indexed": false,
          "internalType": "uint256",
          "name": "timestamp",
          "type": "uint256"
        }
      ],
      "name": "BridgeInLimitsUpdated",
      "type": "event"
    },
    {
      "anonymous": false,
      "inputs": [
        {
          "indexed": true,
          "internalType": "address",
          "name": "to",
          "type": "address"
        },
        {
          "indexed": false,
          "internalType": "uint256",
          "name": "amount",
          "type": "uint256"
        },
        {
          "indexed": true,
          "internalType": "uint256",
          "name": "chainId",
          "type": "uint256"
        },
        {
          "indexed": true,
          "internalType": "bytes32",
          "name": "txId",
          "type": "bytes32"
        },
        {
          "indexed": false,
          "internalType": "uint256",
          "name": "timestamp",
          "type": "uint256"
        }
      ],
      "name": "BridgedIn",
      "type": "event"
    },
    {
      "anonymous": false,
      "inputs": [
        {
          "indexed": true,
          "internalType": "address",
          "name": "from",
          "type": "address"
        },
        {
          "indexed": false,
          "internalType": "uint256",
          "name": "amount",
          "type": "uint256"
        },
        {
          "indexed": true,
          "internalType": "address",
          "name": "targetAddress",
          "type": "address"
        },
        {
          "indexed": true,
          "internalType": "uint256",
          "name": "chainId",
          "type": "uint256"
        },
        {
          "indexed": false,
          "internalType": "bytes32",
          "name": "txId",
          "type": "bytes32"
        },
        {
          "indexed": false,
          "internalType": "uint256",
          "name": "timestamp",
          "type": "uint256"
        }
      ],
      "name": "BridgedOut",
      "type": "event"
    },
    {
      "anonymous": false,
      "inputs": [
        {
          "indexed": true,
          "internalType": "bytes32",
          "name": "operationId",
          "type": "bytes32"
        },
        {
          "indexed": true,
          "internalType": "address",
          "name": "target",
          "type": "address"
        },
        {
          "indexed": false,
          "internalType": "uint256",
          "name": "amount",
          "type": "uint256"
        },
        {
          "indexed": false,
          "internalType": "uint256",
          "name": "newTotalSupply",
          "type": "uint256"
        }
      ],
      "name": "BurnExecuted",
      "type": "event"
    },
    {
      "anonymous": false,
      "inputs": [
        {
          "indexed": true,
          "internalType": "bytes32",
          "name": "operationId",
          "type": "bytes32"
        },
        {
          "indexed": false,
          "internalType": "bool",
          "name": "isPreLaunch",
          "type": "bool"
        },
        {
          "indexed": false,
          "internalType": "uint256",
          "name": "timestamp",
          "type": "uint256"
        }
      ],
      "name": "LaunchStateChanged",
      "type": "event"
    },
    {
      "anonymous": false,
      "inputs": [
        {
          "indexed": true,
          "internalType": "bytes32",
          "name": "operationId",
          "type": "bytes32"
        },
        {
          "indexed": true,
          "internalType": "address",
          "name": "target",
          "type": "address"
        },
        {
          "indexed": false,
          "internalType": "uint256",
          "name": "amount",
          "type": "uint256"
        },
        {
          "indexed": false,
          "internalType": "uint256",
          "name": "newTotalSupply",
          "type": "uint256"
        },
        {
          "indexed": false,
          "internalType": "uint256",
          "name": "nextMintTime",
          "type": "uint256"
        }
      ],
      "name": "MintExecuted",
      "type": "event"
    },
    {
      "anonymous": false,
      "inputs": [
        {
          "indexed": true,
          "internalType": "bytes32",
          "name": "operationId",
          "type": "bytes32"
        },
        {
          "indexed": true,
          "internalType": "enum Liberdus.OperationType",
          "name": "opType",
          "type": "uint8"
        }
      ],
      "name": "OperationExecuted",
      "type": "event"
    },
    {
      "anonymous": false,
      "inputs": [
        {
          "indexed": true,
          "internalType": "bytes32",
          "name": "operationId",
          "type": "bytes32"
        },
        {
          "indexed": true,
          "internalType": "enum Liberdus.OperationType",
          "name": "opType",
          "type": "uint8"
        },
        {
          "indexed": true,
          "internalType": "address",
          "name": "requester",
          "type": "address"
        },
        {
          "indexed": false,
          "internalType": "address",
          "name": "target",
          "type": "address"
        },
        {
          "indexed": false,
          "internalType": "uint256",
          "name": "value",
          "type": "uint256"
        },
        {
          "indexed": false,
          "internalType": "bytes",
          "name": "data",
          "type": "bytes"
        },
        {
          "indexed": false,
          "internalType": "uint256",
          "name": "timestamp",
          "type": "uint256"
        }
      ],
      "name": "OperationRequested",
      "type": "event"
    },
    {
      "anonymous": false,
      "inputs": [
        {
          "indexed": true,
          "internalType": "address",
          "name": "previousOwner",
          "type": "address"
        },
        {
          "indexed": true,
          "internalType": "address",
          "name": "newOwner",
          "type": "address"
        }
      ],
      "name": "OwnershipTransferred",
      "type": "event"
    },
    {
      "anonymous": false,
      "inputs": [
        {
          "indexed": false,
          "internalType": "address",
          "name": "account",
          "type": "address"
        }
      ],
      "name": "Paused",
      "type": "event"
    },
    {
      "anonymous": false,
      "inputs": [
        {
          "indexed": true,
          "internalType": "bytes32",
          "name": "operationId",
          "type": "bytes32"
        },
        {
          "indexed": true,
          "internalType": "address",
          "name": "signer",
          "type": "address"
        },
        {
          "indexed": false,
          "internalType": "uint256",
          "name": "currentSignatures",
          "type": "uint256"
        },
        {
          "indexed": false,
          "internalType": "uint256",
          "name": "requiredSignatures",
          "type": "uint256"
        },
        {
          "indexed": false,
          "internalType": "uint256",
          "name": "timestamp",
          "type": "uint256"
        }
      ],
      "name": "SignatureSubmitted",
      "type": "event"
    },
    {
      "anonymous": false,
      "inputs": [
        {
          "indexed": true,
          "internalType": "bytes32",
          "name": "operationId",
          "type": "bytes32"
        },
        {
          "indexed": true,
          "internalType": "address",
          "name": "oldSigner",
          "type": "address"
        },
        {
          "indexed": true,
          "internalType": "address",
          "name": "newSigner",
          "type": "address"
        },
        {
          "indexed": false,
          "internalType": "uint256",
          "name": "timestamp",
          "type": "uint256"
        }
      ],
      "name": "SignerUpdated",
      "type": "event"
    },
    {
      "anonymous": false,
      "inputs": [
        {
          "indexed": true,
          "internalType": "address",
          "name": "from",
          "type": "address"
        },
        {
          "indexed": true,
          "internalType": "address",
          "name": "to",
          "type": "address"
        },
        {
          "indexed": false,
          "internalType": "uint256",
          "name": "value",
          "type": "uint256"
        }
      ],
      "name": "Transfer",
      "type": "event"
    },
    {
      "anonymous": false,
      "inputs": [
        {
          "indexed": false,
          "internalType": "address",
          "name": "account",
          "type": "address"
        }
      ],
      "name": "Unpaused",
      "type": "event"
    },
    {
      "inputs": [],
      "name": "MAX_SUPPLY",
      "outputs": [
        {
          "internalType": "uint256",
          "name": "",
          "type": "uint256"
        }
      ],
      "stateMutability": "view",
      "type": "function"
    },
    {
      "inputs": [],
      "name": "MINT_AMOUNT",
      "outputs": [
        {
          "internalType": "uint256",
          "name": "",
          "type": "uint256"
        }
      ],
      "stateMutability": "view",
      "type": "function"
    },
    {
      "inputs": [],
      "name": "MINT_INTERVAL",
      "outputs": [
        {
          "internalType": "uint256",
          "name": "",
          "type": "uint256"
        }
      ],
      "stateMutability": "view",
      "type": "function"
    },
    {
      "inputs": [],
      "name": "REQUIRED_SIGNATURES",
      "outputs": [
        {
          "internalType": "uint256",
          "name": "",
          "type": "uint256"
        }
      ],
      "stateMutability": "view",
      "type": "function"
    },
    {
      "inputs": [],
      "name": "REQUIRED_SIGNATURES_FOR_UPDATE",
      "outputs": [
        {
          "internalType": "uint256",
          "name": "",
          "type": "uint256"
        }
      ],
      "stateMutability": "view",
      "type": "function"
    },
    {
      "inputs": [
        {
          "internalType": "address",
          "name": "owner",
          "type": "address"
        },
        {
          "internalType": "address",
          "name": "spender",
          "type": "address"
        }
      ],
      "name": "allowance",
      "outputs": [
        {
          "internalType": "uint256",
          "name": "",
          "type": "uint256"
        }
      ],
      "stateMutability": "view",
      "type": "function"
    },
    {
      "inputs": [
        {
          "internalType": "address",
          "name": "spender",
          "type": "address"
        },
        {
          "internalType": "uint256",
          "name": "value",
          "type": "uint256"
        }
      ],
      "name": "approve",
      "outputs": [
        {
          "internalType": "bool",
          "name": "",
          "type": "bool"
        }
      ],
      "stateMutability": "nonpayable",
      "type": "function"
    },
    {
      "inputs": [
        {
          "internalType": "address",
          "name": "account",
          "type": "address"
        }
      ],
      "name": "balanceOf",
      "outputs": [
        {
          "internalType": "uint256",
          "name": "",
          "type": "uint256"
        }
      ],
      "stateMutability": "view",
      "type": "function"
    },
    {
      "inputs": [
        {
          "internalType": "address",
          "name": "to",
          "type": "address"
        },
        {
          "internalType": "uint256",
          "name": "amount",
          "type": "uint256"
        },
        {
          "internalType": "uint256",
          "name": "_chainId",
          "type": "uint256"
        },
        {
          "internalType": "bytes32",
          "name": "txId",
          "type": "bytes32"
        }
      ],
      "name": "bridgeIn",
      "outputs": [],
      "stateMutability": "nonpayable",
      "type": "function"
    },
    {
      "inputs": [],
      "name": "bridgeInCaller",
      "outputs": [
        {
          "internalType": "address",
          "name": "",
          "type": "address"
        }
      ],
      "stateMutability": "view",
      "type": "function"
    },
    {
      "inputs": [],
      "name": "bridgeInCooldown",
      "outputs": [
        {
          "internalType": "uint256",
          "name": "",
          "type": "uint256"
        }
      ],
      "stateMutability": "view",
      "type": "function"
    },
    {
      "inputs": [
        {
          "internalType": "uint256",
          "name": "amount",
          "type": "uint256"
        },
        {
          "internalType": "address",
          "name": "targetAddress",
          "type": "address"
        },
        {
          "internalType": "uint256",
          "name": "_chainId",
          "type": "uint256"
        }
      ],
      "name": "bridgeOut",
      "outputs": [],
      "stateMutability": "nonpayable",
      "type": "function"
    },
    {
      "inputs": [],
      "name": "chainId",
      "outputs": [
        {
          "internalType": "uint256",
          "name": "",
          "type": "uint256"
        }
      ],
      "stateMutability": "view",
      "type": "function"
    },
    {
      "inputs": [],
      "name": "decimals",
      "outputs": [
        {
          "internalType": "uint8",
          "name": "",
          "type": "uint8"
        }
      ],
      "stateMutability": "view",
      "type": "function"
    },
    {
      "inputs": [],
      "name": "getChainId",
      "outputs": [
        {
          "internalType": "uint256",
          "name": "",
          "type": "uint256"
        }
      ],
      "stateMutability": "view",
      "type": "function"
    },
    {
      "inputs": [],
      "name": "getNextMintTime",
      "outputs": [
        {
          "internalType": "uint256",
          "name": "",
          "type": "uint256"
        }
      ],
      "stateMutability": "view",
      "type": "function"
    },
    {
      "inputs": [
        {
          "internalType": "bytes32",
          "name": "operationId",
          "type": "bytes32"
        }
      ],
      "name": "getOperationHash",
      "outputs": [
        {
          "internalType": "bytes32",
          "name": "",
          "type": "bytes32"
        }
      ],
      "stateMutability": "view",
      "type": "function"
    },
    {
      "inputs": [],
      "name": "getRemainingSupply",
      "outputs": [
        {
          "internalType": "uint256",
          "name": "",
          "type": "uint256"
        }
      ],
      "stateMutability": "view",
      "type": "function"
    },
    {
      "inputs": [],
      "name": "isPreLaunch",
      "outputs": [
        {
          "internalType": "bool",
          "name": "",
          "type": "bool"
        }
      ],
      "stateMutability": "view",
      "type": "function"
    },
    {
      "inputs": [
        {
          "internalType": "address",
          "name": "account",
          "type": "address"
        }
      ],
      "name": "isSigner",
      "outputs": [
        {
          "internalType": "bool",
          "name": "",
          "type": "bool"
        }
      ],
      "stateMutability": "view",
      "type": "function"
    },
    {
      "inputs": [],
      "name": "lastBridgeInTime",
      "outputs": [
        {
          "internalType": "uint256",
          "name": "",
          "type": "uint256"
        }
      ],
      "stateMutability": "view",
      "type": "function"
    },
    {
      "inputs": [],
      "name": "lastMintTime",
      "outputs": [
        {
          "internalType": "uint256",
          "name": "",
          "type": "uint256"
        }
      ],
      "stateMutability": "view",
      "type": "function"
    },
    {
      "inputs": [],
      "name": "maxBridgeInAmount",
      "outputs": [
        {
          "internalType": "uint256",
          "name": "",
          "type": "uint256"
        }
      ],
      "stateMutability": "view",
      "type": "function"
    },
    {
      "inputs": [],
      "name": "name",
      "outputs": [
        {
          "internalType": "string",
          "name": "",
          "type": "string"
        }
      ],
      "stateMutability": "view",
      "type": "function"
    },
    {
      "inputs": [],
      "name": "operationCount",
      "outputs": [
        {
          "internalType": "uint256",
          "name": "",
          "type": "uint256"
        }
      ],
      "stateMutability": "view",
      "type": "function"
    },
    {
      "inputs": [
        {
          "internalType": "bytes32",
          "name": "",
          "type": "bytes32"
        }
      ],
      "name": "operations",
      "outputs": [
        {
          "internalType": "enum Liberdus.OperationType",
          "name": "opType",
          "type": "uint8"
        },
        {
          "internalType": "address",
          "name": "target",
          "type": "address"
        },
        {
          "internalType": "uint256",
          "name": "value",
          "type": "uint256"
        },
        {
          "internalType": "bytes",
          "name": "data",
          "type": "bytes"
        },
        {
          "internalType": "uint256",
          "name": "numSignatures",
          "type": "uint256"
        },
        {
          "internalType": "bool",
          "name": "executed",
          "type": "bool"
        }
      ],
      "stateMutability": "view",
      "type": "function"
    },
    {
      "inputs": [],
      "name": "owner",
      "outputs": [
        {
          "internalType": "address",
          "name": "",
          "type": "address"
        }
      ],
      "stateMutability": "view",
      "type": "function"
    },
    {
      "inputs": [],
      "name": "paused",
      "outputs": [
        {
          "internalType": "bool",
          "name": "",
          "type": "bool"
        }
      ],
      "stateMutability": "view",
      "type": "function"
    },
    {
      "inputs": [],
      "name": "renounceOwnership",
      "outputs": [],
      "stateMutability": "nonpayable",
      "type": "function"
    },
    {
      "inputs": [
        {
          "internalType": "enum Liberdus.OperationType",
          "name": "opType",
          "type": "uint8"
        },
        {
          "internalType": "address",
          "name": "target",
          "type": "address"
        },
        {
          "internalType": "uint256",
          "name": "value",
          "type": "uint256"
        },
        {
          "internalType": "bytes",
          "name": "data",
          "type": "bytes"
        }
      ],
      "name": "requestOperation",
      "outputs": [
        {
          "internalType": "bytes32",
          "name": "",
          "type": "bytes32"
        }
      ],
      "stateMutability": "nonpayable",
      "type": "function"
    },
    {
      "inputs": [
        {
          "internalType": "uint256",
          "name": "",
          "type": "uint256"
        }
      ],
      "name": "signers",
      "outputs": [
        {
          "internalType": "address",
          "name": "",
          "type": "address"
        }
      ],
      "stateMutability": "view",
      "type": "function"
    },
    {
      "inputs": [
        {
          "internalType": "bytes32",
          "name": "operationId",
          "type": "bytes32"
        },
        {
          "internalType": "bytes",
          "name": "signature",
          "type": "bytes"
        }
      ],
      "name": "submitSignature",
      "outputs": [],
      "stateMutability": "nonpayable",
      "type": "function"
    },
    {
      "inputs": [],
      "name": "symbol",
      "outputs": [
        {
          "internalType": "string",
          "name": "",
          "type": "string"
        }
      ],
      "stateMutability": "view",
      "type": "function"
    },
    {
      "inputs": [],
      "name": "totalSupply",
      "outputs": [
        {
          "internalType": "uint256",
          "name": "",
          "type": "uint256"
        }
      ],
      "stateMutability": "view",
      "type": "function"
    },
    {
      "inputs": [
        {
          "internalType": "address",
          "name": "to",
          "type": "address"
        },
        {
          "internalType": "uint256",
          "name": "amount",
          "type": "uint256"
        }
      ],
      "name": "transfer",
      "outputs": [
        {
          "internalType": "bool",
          "name": "",
          "type": "bool"
        }
      ],
      "stateMutability": "nonpayable",
      "type": "function"
    },
    {
      "inputs": [
        {
          "internalType": "address",
          "name": "from",
          "type": "address"
        },
        {
          "internalType": "address",
          "name": "to",
          "type": "address"
        },
        {
          "internalType": "uint256",
          "name": "amount",
          "type": "uint256"
        }
      ],
      "name": "transferFrom",
      "outputs": [
        {
          "internalType": "bool",
          "name": "",
          "type": "bool"
        }
      ],
      "stateMutability": "nonpayable",
      "type": "function"
    },
    {
      "inputs": [
        {
          "internalType": "address",
          "name": "newOwner",
          "type": "address"
        }
      ],
      "name": "transferOwnership",
      "outputs": [],
      "stateMutability": "nonpayable",
      "type": "function"
    }
  ],
  "bytecode": "0x60a06040526001600a60006101000a81548160ff02191690831515021790555069021e19e0c9bab2400000600d55603c600e553480156200003f57600080fd5b506040516200568a3803806200568a83398181016040528101906200006591906200053f565b336040518060400160405280600881526020017f4c696265726475730000000000000000000000000000000000000000000000008152506040518060400160405280600381526020017f4c424400000000000000000000000000000000000000000000000000000000008152508160039081620000e39190620007c7565b508060049081620000f59190620007c7565b5050506000600560006101000a81548160ff0219169083151502179055506001600681905550600073ffffffffffffffffffffffffffffffffffffffff168173ffffffffffffffffffffffffffffffffffffffff1603620001905760006040517f1e4fbdf7000000000000000000000000000000000000000000000000000000008152600401620001879190620008bf565b60405180910390fd5b620001a181620001c660201b60201c565b50816010906003620001b59291906200028c565b5080608081815250505050620008dc565b6000600760009054906101000a900473ffffffffffffffffffffffffffffffffffffffff16905081600760006101000a81548173ffffffffffffffffffffffffffffffffffffffff021916908373ffffffffffffffffffffffffffffffffffffffff1602179055508173ffffffffffffffffffffffffffffffffffffffff168173ffffffffffffffffffffffffffffffffffffffff167f8be0079c531659141344cd1fd0a4f28419497f9722a3daafe3b4186f6b6457e060405160405180910390a35050565b8260038101928215620002fb579160200282015b82811115620002fa5782518260006101000a81548173ffffffffffffffffffffffffffffffffffffffff021916908373ffffffffffffffffffffffffffffffffffffffff16021790555091602001919060010190620002a0565b5b5090506200030a91906200030e565b5090565b5b80821115620003295760008160009055506001016200030f565b5090565b6000604051905090565b600080fd5b600080fd5b6000601f19601f8301169050919050565b7f4e487b7100000000000000000000000000000000000000000000000000000000600052604160045260246000fd5b6200038c8262000341565b810181811067ffffffffffffffff82111715620003ae57620003ad62000352565b5b80604052505050565b6000620003c36200032d565b9050620003d1828262000381565b919050565b600067ffffffffffffffff821115620003f457620003f362000352565b5b602082029050919050565b600080fd5b600073ffffffffffffffffffffffffffffffffffffffff82169050919050565b6000620004318262000404565b9050919050565b620004438162000424565b81146200044f57600080fd5b50565b600081519050620004638162000438565b92915050565b6000620004806200047a84620003d6565b620003b7565b905080602084028301858111156200049d576200049c620003ff565b5b835b81811015620004ca5780620004b5888262000452565b8452602084019350506020810190506200049f565b5050509392505050565b600082601f830112620004ec57620004eb6200033c565b5b6003620004fb84828562000469565b91505092915050565b6000819050919050565b620005198162000504565b81146200052557600080fd5b50565b60008151905062000539816200050e565b92915050565b6000806080838503121562000559576200055862000337565b5b60006200056985828601620004d4565b92505060606200057c8582860162000528565b9150509250929050565b600081519050919050565b7f4e487b7100000000000000000000000000000000000000000000000000000000600052602260045260246000fd5b60006002820490506001821680620005d957607f821691505b602082108103620005ef57620005ee62000591565b5b50919050565b60008190508160005260206000209050919050565b60006020601f8301049050919050565b600082821b905092915050565b600060088302620006597fffffffffffffffffffffffffffffffffffffffffffffffffffffffffffffffff826200061a565b6200066586836200061a565b95508019841693508086168417925050509392505050565b6000819050919050565b6000620006a8620006a26200069c8462000504565b6200067d565b62000504565b9050919050565b6000819050919050565b620006c48362000687565b620006dc620006d382620006af565b84845462000627565b825550505050565b600090565b620006f3620006e4565b62000700818484620006b9565b505050565b5b8181101562000728576200071c600082620006e9565b60018101905062000706565b5050565b601f82111562000777576200074181620005f5565b6200074c846200060a565b810160208510156200075c578190505b620007746200076b856200060a565b83018262000705565b50505b505050565b600082821c905092915050565b60006200079c600019846008026200077c565b1980831691505092915050565b6000620007b7838362000789565b9150826002028217905092915050565b620007d28262000586565b67ffffffffffffffff811115620007ee57620007ed62000352565b5b620007fa8254620005c0565b620008078282856200072c565b600060209050601f8311600181146200083f57600084156200082a578287015190505b620008368582620007a9565b865550620008a6565b601f1984166200084f86620005f5565b60005b82811015620008795784890151825560018201915060208501945060208101905062000852565b8683101562000899578489015162000895601f89168262000789565b8355505b6001600288020188555050505b505050505050565b620008b98162000424565b82525050565b6000602082019050620008d66000830184620008ae565b92915050565b608051614d76620009146000396000818161085a01528181610cde01528181611000015281816118410152611a080152614d766000f3fe608060405234801561001057600080fd5b50600436106102275760003560e01c80637df73e2711610130578063be146adc116100b8578063e4b7fb731161007c578063e4b7fb731461067b578063e8dd561d14610699578063eca34900146106b7578063f2fde38b146106d3578063f91ea947146106ef57610227565b8063be146adc146105be578063c74f349b146105dc578063dd62ed3e14610611578063df6158ba14610641578063e4a1b7771461065d57610227565b80639a8a0592116100ff5780639a8a0592146105165780639ac18b19146105345780639d46352014610552578063a9059cbb14610570578063b28fd349146105a057610227565b80637df73e271461048c57806384e7e3d3146104bc5780638da5cb5b146104da57806395d89b41146104f857610227565b80633408e470116101b3578063603ad8ad11610182578063603ad8ad146103e8578063625cf366146104065780636a3871d91461043657806370a0823114610452578063715018a61461048257610227565b80633408e470146103705780635427789c1461038e5780635834e9de146103ac5780635c975abb146103ca57610227565b80632079fb9a116101fa5780632079fb9a146102b657806323b872dd146102e657806323d3c14214610316578063313ce5671461033457806332cb6b0c1461035257610227565b806306fdde031461022c578063095ea7b31461024a57806318160ddd1461027a57806319fd6f4614610298575b600080fd5b61023461071f565b604051610241919061329d565b60405180910390f35b610264600480360381019061025f9190613367565b6107b1565b60405161027191906133c2565b60405180910390f35b6102826107d4565b60405161028f91906133ec565b60405180910390f35b6102a06107de565b6040516102ad91906133ec565b60405180910390f35b6102d060048036038101906102cb9190613407565b6107e4565b6040516102dd9190613443565b60405180910390f35b61030060048036038101906102fb919061345e565b61081a565b60405161030d91906133c2565b60405180910390f35b61031e610838565b60405161032b91906133ec565b60405180910390f35b61033c61083e565b60405161034991906134cd565b60405180910390f35b61035a610847565b60405161036791906133ec565b60405180910390f35b610378610856565b60405161038591906133ec565b60405180910390f35b61039661087e565b6040516103a391906133ec565b60405180910390f35b6103b461088d565b6040516103c191906133ec565b60405180910390f35b6103d2610893565b6040516103df91906133c2565b60405180910390f35b6103f06108aa565b6040516103fd91906133ec565b60405180910390f35b610420600480360381019061041b9190613642565b6108b0565b60405161042d91906136de565b60405180910390f35b610450600480360381019061044b9190613725565b610bf4565b005b61046c6004803603810190610467919061378c565b610e3e565b60405161047991906133ec565b60405180910390f35b61048a610e86565b005b6104a660048036038101906104a1919061378c565b610e9a565b6040516104b391906133c2565b60405180910390f35b6104c4610f3b565b6040516104d191906133ec565b60405180910390f35b6104e2610f42565b6040516104ef9190613443565b60405180910390f35b610500610f6c565b60405161050d919061329d565b60405180910390f35b61051e610ffe565b60405161052b91906133ec565b60405180910390f35b61053c611022565b60405161054991906133ec565b60405180910390f35b61055a611027565b60405161056791906133ec565b60405180910390f35b61058a60048036038101906105859190613367565b61102d565b60405161059791906133c2565b60405180910390f35b6105a8611049565b6040516105b591906133c2565b60405180910390f35b6105c661105c565b6040516105d391906133ec565b60405180910390f35b6105f660048036038101906105f191906137b9565b611074565b604051610608969594939291906138b2565b60405180910390f35b61062b6004803603810190610626919061391a565b611172565b60405161063891906133ec565b60405180910390f35b61065b6004803603810190610656919061395a565b6111f9565b005b610665611797565b6040516106729190613443565b60405180910390f35b6106836117bd565b60405161069091906133ec565b60405180910390f35b6106a16117e2565b6040516106ae91906133ec565b60405180910390f35b6106d160048036038101906106cc91906139b6565b6117e7565b005b6106ed60048036038101906106e8919061378c565b611927565b005b610709600480360381019061070491906137b9565b6119ad565b60405161071691906136de565b60405180910390f35b60606003805461072e90613a38565b80601f016020809104026020016040519081016040528092919081815260200182805461075a90613a38565b80156107a75780601f1061077c576101008083540402835291602001916107a7565b820191906000526020600020905b81548152906001019060200180831161078a57829003601f168201915b5050505050905090565b6000806107bc611a5a565b90506107c9818585611a62565b600191505092915050565b6000600254905090565b600d5481565b601081600381106107f457600080fd5b016000915054906101000a900473ffffffffffffffffffffffffffffffffffffffff1681565b6000610824611a74565b61082f848484611ab5565b90509392505050565b60095481565b60006012905090565b6aadb53acfa41aee1200000081565b60007f0000000000000000000000000000000000000000000000000000000000000000905090565b6a027b46536c66c8e300000081565b600f5481565b6000600560009054906101000a900460ff16905090565b600e5481565b60006108bb33610e9a565b806108f857503373ffffffffffffffffffffffffffffffffffffffff166108e0610f42565b73ffffffffffffffffffffffffffffffffffffffff16145b610937576040517f08c379a000000000000000000000000000000000000000000000000000000000815260040161092e90613adb565b60405180910390fd5b60078081111561094a576109496137e6565b5b85600781111561095d5761095c6137e6565b5b03610a6e576000849050600084905061097582610e9a565b6109b4576040517f08c379a00000000000000000000000000000000000000000000000000000000081526004016109ab90613b47565b60405180910390fd5b6109bd81610e9a565b156109fd576040517f08c379a00000000000000000000000000000000000000000000000000000000081526004016109f490613bb3565b60405180910390fd5b3373ffffffffffffffffffffffffffffffffffffffff168273ffffffffffffffffffffffffffffffffffffffff1603610a6b576040517f08c379a0000000000000000000000000000000000000000000000000000000008152600401610a6290613c1f565b60405180910390fd5b50505b600060096000815480929190610a8390613c6e565b9190505586868686604051602001610a9f959493929190613d91565b6040516020818303038152906040528051906020012090506000600860008381526020019081526020016000209050868160000160006101000a81548160ff02191690836007811115610af557610af46137e6565b5b0217905550858160000160016101000a81548173ffffffffffffffffffffffffffffffffffffffff021916908373ffffffffffffffffffffffffffffffffffffffff16021790555084816001018190555083816002019081610b579190613f98565b5060008160040160006101000a81548160ff021916908315150217905550600081600301819055503373ffffffffffffffffffffffffffffffffffffffff16876007811115610ba957610ba86137e6565b5b837f882a4730dee102f31cb58bebce7b4c937e37929565cad493b28b8c182797edbb89898942604051610bdf949392919061406a565b60405180910390a48192505050949350505050565b600c60009054906101000a900473ffffffffffffffffffffffffffffffffffffffff1673ffffffffffffffffffffffffffffffffffffffff163373ffffffffffffffffffffffffffffffffffffffff1614610c84576040517f08c379a0000000000000000000000000000000000000000000000000000000008152600401610c7b90614102565b60405180910390fd5b610c8c611a74565b600a60009054906101000a900460ff1615610cdc576040517f08c379a0000000000000000000000000000000000000000000000000000000008152600401610cd390614194565b60405180910390fd5b7f00000000000000000000000000000000000000000000000000000000000000008214610d3e576040517f08c379a0000000000000000000000000000000000000000000000000000000008152600401610d3590614200565b60405180910390fd5b600d54831115610d83576040517f08c379a0000000000000000000000000000000000000000000000000000000008152600401610d7a9061426c565b60405180910390fd5b600e54600f54610d93919061428c565b421015610dd5576040517f08c379a0000000000000000000000000000000000000000000000000000000008152600401610dcc9061430c565b60405180910390fd5b610ddf8484611ae4565b42600f8190555080828573ffffffffffffffffffffffffffffffffffffffff167f3103839a975cfda8945c16c129eee8c03a573977d4913ab604f3eb714f0241598642604051610e3092919061432c565b60405180910390a450505050565b60008060008373ffffffffffffffffffffffffffffffffffffffff1673ffffffffffffffffffffffffffffffffffffffff168152602001908152602001600020549050919050565b610e8e611b66565b610e986000611bed565b565b600080600090505b6003811015610f30578273ffffffffffffffffffffffffffffffffffffffff1660108260038110610ed657610ed5614355565b5b0160009054906101000a900473ffffffffffffffffffffffffffffffffffffffff1673ffffffffffffffffffffffffffffffffffffffff1603610f1d576001915050610f36565b8080610f2890613c6e565b915050610ea2565b50600090505b919050565b6224171081565b6000600760009054906101000a900473ffffffffffffffffffffffffffffffffffffffff16905090565b606060048054610f7b90613a38565b80601f0160208091040260200160405190810160405280929190818152602001828054610fa790613a38565b8015610ff45780601f10610fc957610100808354040283529160200191610ff4565b820191906000526020600020905b815481529060010190602001808311610fd757829003601f168201915b5050505050905090565b7f000000000000000000000000000000000000000000000000000000000000000081565b600381565b600b5481565b6000611037611a74565b6110418383611cb3565b905092915050565b600a60009054906101000a900460ff1681565b600062241710600b5461106f919061428c565b905090565b60086020528060005260406000206000915090508060000160009054906101000a900460ff16908060000160019054906101000a900473ffffffffffffffffffffffffffffffffffffffff16908060010154908060020180546110d690613a38565b80601f016020809104026020016040519081016040528092919081815260200182805461110290613a38565b801561114f5780601f106111245761010080835404028352916020019161114f565b820191906000526020600020905b81548152906001019060200180831161113257829003601f168201915b5050505050908060030154908060040160009054906101000a900460ff16905086565b6000600160008473ffffffffffffffffffffffffffffffffffffffff1673ffffffffffffffffffffffffffffffffffffffff16815260200190815260200160002060008373ffffffffffffffffffffffffffffffffffffffff1673ffffffffffffffffffffffffffffffffffffffff16815260200190815260200160002054905092915050565b61120233610e9a565b611241576040517f08c379a0000000000000000000000000000000000000000000000000000000008152600401611238906143f6565b60405180910390fd5b60006008600084815260200190815260200160002090508060040160009054906101000a900460ff16156112aa576040517f08c379a00000000000000000000000000000000000000000000000000000000081526004016112a190614462565b60405180910390fd5b8060050160003373ffffffffffffffffffffffffffffffffffffffff1673ffffffffffffffffffffffffffffffffffffffff16815260200190815260200160002060009054906101000a900460ff1615611339576040517f08c379a0000000000000000000000000000000000000000000000000000000008152600401611330906144ce565b60405180910390fd5b6000611344846119ad565b90506000816040516020016113599190614566565b604051602081830303815290604052805190602001209050600061137d8286611cd6565b90503373ffffffffffffffffffffffffffffffffffffffff168173ffffffffffffffffffffffffffffffffffffffff16146113ed576040517f08c379a00000000000000000000000000000000000000000000000000000000081526004016113e4906145fe565b60405180910390fd5b600780811115611400576113ff6137e6565b5b8460000160009054906101000a900460ff166007811115611424576114236137e6565b5b0361158c5761143281610e9a565b8061146f5750611440610f42565b73ffffffffffffffffffffffffffffffffffffffff168173ffffffffffffffffffffffffffffffffffffffff16145b6114ae576040517f08c379a00000000000000000000000000000000000000000000000000000000081526004016114a590614690565b60405180910390fd5b8360000160019054906101000a900473ffffffffffffffffffffffffffffffffffffffff1673ffffffffffffffffffffffffffffffffffffffff168173ffffffffffffffffffffffffffffffffffffffff1603611540576040517f08c379a000000000000000000000000000000000000000000000000000000000815260040161153790614722565b60405180910390fd5b6002846003015410611587576040517f08c379a000000000000000000000000000000000000000000000000000000000815260040161157e9061478e565b60405180910390fd5b61161c565b61159581610e9a565b6115d4576040517f08c379a00000000000000000000000000000000000000000000000000000000081526004016115cb906147fa565b60405180910390fd5b600384600301541061161b576040517f08c379a00000000000000000000000000000000000000000000000000000000081526004016116129061478e565b60405180910390fd5b5b60018460050160008373ffffffffffffffffffffffffffffffffffffffff1673ffffffffffffffffffffffffffffffffffffffff16815260200190815260200160002060006101000a81548160ff02191690831515021790555083600301600081548092919061168b90613c6e565b91905055508073ffffffffffffffffffffffffffffffffffffffff16867f08fd08172fcea5acf5a0736b281cd7a25f510f6192abd379b036cae0f064d85486600301546003426040516116e09392919061481a565b60405180910390a36007808111156116fb576116fa6137e6565b5b8460000160009054906101000a900460ff16600781111561171f5761171e6137e6565b5b148015611730575060028460030154145b806117805750600780811115611749576117486137e6565b5b8460000160009054906101000a900460ff16600781111561176d5761176c6137e6565b5b1415801561177f575060038460030154145b5b1561178f5761178e86611d02565b5b505050505050565b600c60009054906101000a900473ffffffffffffffffffffffffffffffffffffffff1681565b60006117c76107d4565b6aadb53acfa41aee120000006117dd9190614851565b905090565b600281565b6117ef611a74565b600a60009054906101000a900460ff161561183f576040517f08c379a0000000000000000000000000000000000000000000000000000000008152600401611836906148f7565b60405180910390fd5b7f000000000000000000000000000000000000000000000000000000000000000081146118a1576040517f08c379a000000000000000000000000000000000000000000000000000000000815260040161189890614200565b60405180910390fd5b6118ab338461217d565b808273ffffffffffffffffffffffffffffffffffffffff163373ffffffffffffffffffffffffffffffffffffffff167f4845335859d7ea6961d3ebfd03856dd446696cd26230e6d61ad2656202fd8ad7866001436119099190614851565b404260405161191a93929190614917565b60405180910390a4505050565b61192f611b66565b600073ffffffffffffffffffffffffffffffffffffffff168173ffffffffffffffffffffffffffffffffffffffff16036119a15760006040517f1e4fbdf70000000000000000000000000000000000000000000000000000000081526004016119989190613443565b60405180910390fd5b6119aa81611bed565b50565b600080600860008481526020019081526020016000209050828160000160009054906101000a900460ff168260000160019054906101000a900473ffffffffffffffffffffffffffffffffffffffff168360010154846002017f0000000000000000000000000000000000000000000000000000000000000000604051602001611a3c969594939291906149d1565b60405160208183030381529060405280519060200120915050919050565b600033905090565b611a6f83838360016121ff565b505050565b611a7c610893565b15611ab3576040517fd93c066500000000000000000000000000000000000000000000000000000000815260040160405180910390fd5b565b600080611ac0611a5a565b9050611acd8582856123d6565b611ad885858561246a565b60019150509392505050565b600073ffffffffffffffffffffffffffffffffffffffff168273ffffffffffffffffffffffffffffffffffffffff1603611b565760006040517fec442f05000000000000000000000000000000000000000000000000000000008152600401611b4d9190613443565b60405180910390fd5b611b626000838361255e565b5050565b611b6e611a5a565b73ffffffffffffffffffffffffffffffffffffffff16611b8c610f42565b73ffffffffffffffffffffffffffffffffffffffff1614611beb57611baf611a5a565b6040517f118cdaa7000000000000000000000000000000000000000000000000000000008152600401611be29190613443565b60405180910390fd5b565b6000600760009054906101000a900473ffffffffffffffffffffffffffffffffffffffff16905081600760006101000a81548173ffffffffffffffffffffffffffffffffffffffff021916908373ffffffffffffffffffffffffffffffffffffffff1602179055508173ffffffffffffffffffffffffffffffffffffffff168173ffffffffffffffffffffffffffffffffffffffff167f8be0079c531659141344cd1fd0a4f28419497f9722a3daafe3b4186f6b6457e060405160405180910390a35050565b600080611cbe611a5a565b9050611ccb81858561246a565b600191505092915050565b600080600080611ce68686612576565b925092509250611cf682826125d2565b82935050505092915050565b611d0a612736565b60006008600083815260200190815260200160002090508060040160009054906101000a900460ff1615611d73576040517f08c379a0000000000000000000000000000000000000000000000000000000008152600401611d6a90614462565b60405180910390fd5b60018160040160006101000a81548160ff021916908315150217905550600780811115611da357611da26137e6565b5b8160000160009054906101000a900460ff166007811115611dc757611dc66137e6565b5b03611e0457611dff828260000160019054906101000a900473ffffffffffffffffffffffffffffffffffffffff16836001015461277c565b612120565b60006007811115611e1857611e176137e6565b5b8160000160009054906101000a900460ff166007811115611e3c57611e3b6137e6565b5b03611e4f57611e4a82612959565b61211f565b60016007811115611e6357611e626137e6565b5b8160000160009054906101000a900460ff166007811115611e8757611e866137e6565b5b03611e9f57611e9a828260010154612b16565b61211e565b60026007811115611eb357611eb26137e6565b5b8160000160009054906101000a900460ff166007811115611ed757611ed66137e6565b5b03611eea57611ee582612c4b565b61211d565b60036007811115611efe57611efd6137e6565b5b8160000160009054906101000a900460ff166007811115611f2257611f216137e6565b5b03611f3457611f2f612d01565b61211c565b60046007811115611f4857611f476137e6565b5b8160000160009054906101000a900460ff166007811115611f6c57611f6b6137e6565b5b03611f7e57611f79612d64565b61211b565b60056007811115611f9257611f916137e6565b5b8160000160009054906101000a900460ff166007811115611fb657611fb56137e6565b5b03611fee57611fe9828260000160019054906101000a900473ffffffffffffffffffffffffffffffffffffffff16612dc7565b61211a565b60066007811115612002576120016137e6565b5b8160000160009054906101000a900460ff166007811115612026576120256137e6565b5b036120de576120d982826001015483600201805461204390613a38565b80601f016020809104026020016040519081016040528092919081815260200182805461206f90613a38565b80156120bc5780601f10612091576101008083540402835291602001916120bc565b820191906000526020600020905b81548152906001019060200180831161209f57829003601f168201915b50505050508060200190518101906120d49190614a52565b612e5b565b612119565b6040517f08c379a000000000000000000000000000000000000000000000000000000000815260040161211090614acb565b60405180910390fd5b5b5b5b5b5b5b5b8060000160009054906101000a900460ff166007811115612144576121436137e6565b5b827f289dad4ed16f1a5875c2cb2c881afd38eeeae5b1c1aee0f8dce6d6593a2ce0eb60405160405180910390a35061217a612eaa565b50565b600073ffffffffffffffffffffffffffffffffffffffff168273ffffffffffffffffffffffffffffffffffffffff16036121ef5760006040517f96c6fd1e0000000000000000000000000000000000000000000000000000000081526004016121e69190613443565b60405180910390fd5b6121fb8260008361255e565b5050565b600073ffffffffffffffffffffffffffffffffffffffff168473ffffffffffffffffffffffffffffffffffffffff16036122715760006040517fe602df050000000000000000000000000000000000000000000000000000000081526004016122689190613443565b60405180910390fd5b600073ffffffffffffffffffffffffffffffffffffffff168373ffffffffffffffffffffffffffffffffffffffff16036122e35760006040517f94280d620000000000000000000000000000000000000000000000000000000081526004016122da9190613443565b60405180910390fd5b81600160008673ffffffffffffffffffffffffffffffffffffffff1673ffffffffffffffffffffffffffffffffffffffff16815260200190815260200160002060008573ffffffffffffffffffffffffffffffffffffffff1673ffffffffffffffffffffffffffffffffffffffff1681526020019081526020016000208190555080156123d0578273ffffffffffffffffffffffffffffffffffffffff168473ffffffffffffffffffffffffffffffffffffffff167f8c5be1e5ebec7d5bd14f71427d1e84f3dd0314c0f7b2291e5b200ac8c7c3b925846040516123c791906133ec565b60405180910390a35b50505050565b60006123e28484611172565b90507fffffffffffffffffffffffffffffffffffffffffffffffffffffffffffffffff81146124645781811015612454578281836040517ffb8f41b200000000000000000000000000000000000000000000000000000000815260040161244b93929190614aeb565b60405180910390fd5b612463848484840360006121ff565b5b50505050565b600073ffffffffffffffffffffffffffffffffffffffff168373ffffffffffffffffffffffffffffffffffffffff16036124dc5760006040517f96c6fd1e0000000000000000000000000000000000000000000000000000000081526004016124d39190613443565b60405180910390fd5b600073ffffffffffffffffffffffffffffffffffffffff168273ffffffffffffffffffffffffffffffffffffffff160361254e5760006040517fec442f050000000000000000000000000000000000000000000000000000000081526004016125459190613443565b60405180910390fd5b61255983838361255e565b505050565b612566611a74565b612571838383612eb4565b505050565b600080600060418451036125bb5760008060006020870151925060408701519150606087015160001a90506125ad888285856130d9565b9550955095505050506125cb565b60006002855160001b9250925092505b9250925092565b600060038111156125e6576125e56137e6565b5b8260038111156125f9576125f86137e6565b5b03156127325760016003811115612613576126126137e6565b5b826003811115612626576126256137e6565b5b0361265d576040517ff645eedf00000000000000000000000000000000000000000000000000000000815260040160405180910390fd5b60026003811115612671576126706137e6565b5b826003811115612684576126836137e6565b5b036126c9578060001c6040517ffce698f70000000000000000000000000000000000000000000000000000000081526004016126c091906133ec565b60405180910390fd5b6003808111156126dc576126db6137e6565b5b8260038111156126ef576126ee6137e6565b5b0361273157806040517fd78bce0c00000000000000000000000000000000000000000000000000000000815260040161272891906136de565b60405180910390fd5b5b5050565b600260065403612772576040517f3ee5aeb500000000000000000000000000000000000000000000000000000000815260040160405180910390fd5b6002600681905550565b61278582610e9a565b6127c4576040517f08c379a00000000000000000000000000000000000000000000000000000000081526004016127bb90613b47565b60405180910390fd5b6127cd81610e9a565b1561280d576040517f08c379a000000000000000000000000000000000000000000000000000000000815260040161280490613bb3565b60405180910390fd5b60005b60038110156128ed578273ffffffffffffffffffffffffffffffffffffffff166010826003811061284457612843614355565b5b0160009054906101000a900473ffffffffffffffffffffffffffffffffffffffff1673ffffffffffffffffffffffffffffffffffffffff16036128da57816010826003811061289657612895614355565b5b0160006101000a81548173ffffffffffffffffffffffffffffffffffffffff021916908373ffffffffffffffffffffffffffffffffffffffff1602179055506128ed565b80806128e590613c6e565b915050612810565b508073ffffffffffffffffffffffffffffffffffffffff168273ffffffffffffffffffffffffffffffffffffffff16847f4c9177a34b5732173b48f1018fc5bdebb32efb1b22916b5e2a8054f61cd8300c4260405161294c91906133ec565b60405180910390a4505050565b60006008600083815260200190815260200160002090506000600b54146129ce5762241710600b5461298b919061428c565b4210156129cd576040517f08c379a00000000000000000000000000000000000000000000000000000000081526004016129c490614b6e565b60405180910390fd5b5b6aadb53acfa41aee120000006a027b46536c66c8e30000006129ee6107d4565b6129f8919061428c565b1115612a39576040517f08c379a0000000000000000000000000000000000000000000000000000000008152600401612a3090614bda565b60405180910390fd5b612a728160000160019054906101000a900473ffffffffffffffffffffffffffffffffffffffff166a027b46536c66c8e3000000611ae4565b42600b819055508060000160019054906101000a900473ffffffffffffffffffffffffffffffffffffffff1673ffffffffffffffffffffffffffffffffffffffff16827f5911cd746a4d2e29c02464f85ede454062eb6acab32d02be07f0900b02c8d7d76a027b46536c66c8e3000000612aea6107d4565b62241710600b54612afb919061428c565b604051612b0a9392919061481a565b60405180910390a35050565b600060086000848152602001908152602001600020905081612b5b8260000160019054906101000a900473ffffffffffffffffffffffffffffffffffffffff16610e3e565b1015612b9c576040517f08c379a0000000000000000000000000000000000000000000000000000000008152600401612b9390614c46565b60405180910390fd5b612bca8160000160019054906101000a900473ffffffffffffffffffffffffffffffffffffffff168361217d565b8060000160019054906101000a900473ffffffffffffffffffffffffffffffffffffffff1673ffffffffffffffffffffffffffffffffffffffff16837f542105b3ce463aa12f054bc7205c1d1bdcb6778fca814fbbd2a92ed95ca1efde84612c306107d4565b604051612c3e92919061432c565b60405180910390a3505050565b600a60009054906101000a900460ff16612c9a576040517f08c379a0000000000000000000000000000000000000000000000000000000008152600401612c9190614cb2565b60405180910390fd5b6000600a60006101000a81548160ff021916908315150217905550807fa7beaf5867ed75bdb9532221346475be435263b9c2b5d94cd653d231ef708bed600a60009054906101000a900460ff1642604051612cf6929190614cd2565b60405180910390a250565b612d09611a74565b6001600560006101000a81548160ff0219169083151502179055507f62e78cea01bee320cd4e420270b5ea74000d11b0c9f74754ebdbfc544b05a258612d4d611a5a565b604051612d5a9190613443565b60405180910390a1565b612d6c6131cd565b6000600560006101000a81548160ff0219169083151502179055507f5db9ee0a495bf2e6ff9c91a7834c1ba4fdd244a5e8aa4e537bd38aeae4b073aa612db0611a5a565b604051612dbd9190613443565b60405180910390a1565b80600c60006101000a81548173ffffffffffffffffffffffffffffffffffffffff021916908373ffffffffffffffffffffffffffffffffffffffff1602179055508073ffffffffffffffffffffffffffffffffffffffff16827f69c7befbb465fe1301816b9d77797de9b2c739a48777e21e84f5c248fe7d30bc42604051612e4f91906133ec565b60405180910390a35050565b81600d8190555080600e81905550827f7b95cdf85cd2effb0753e33c5d171ef3ef06f7fedf995a97fd715c4a3d27a382838342604051612e9d9392919061481a565b60405180910390a2505050565b6001600681905550565b600073ffffffffffffffffffffffffffffffffffffffff168373ffffffffffffffffffffffffffffffffffffffff1603612f06578060026000828254612efa919061428c565b92505081905550612fd9565b60008060008573ffffffffffffffffffffffffffffffffffffffff1673ffffffffffffffffffffffffffffffffffffffff16815260200190815260200160002054905081811015612f92578381836040517fe450d38c000000000000000000000000000000000000000000000000000000008152600401612f8993929190614aeb565b60405180910390fd5b8181036000808673ffffffffffffffffffffffffffffffffffffffff1673ffffffffffffffffffffffffffffffffffffffff16815260200190815260200160002081905550505b600073ffffffffffffffffffffffffffffffffffffffff168273ffffffffffffffffffffffffffffffffffffffff1603613022578060026000828254039250508190555061306f565b806000808473ffffffffffffffffffffffffffffffffffffffff1673ffffffffffffffffffffffffffffffffffffffff168152602001908152602001600020600082825401925050819055505b8173ffffffffffffffffffffffffffffffffffffffff168373ffffffffffffffffffffffffffffffffffffffff167fddf252ad1be2c89b69c2b068fc378daa952ba7f163c4a11628f55a4df523b3ef836040516130cc91906133ec565b60405180910390a3505050565b60008060007f7fffffffffffffffffffffffffffffff5d576e7357a4501ddfe92f46681b20a08460001c11156131195760006003859250925092506131c3565b60006001888888886040516000815260200160405260405161313e9493929190614cfb565b6020604051602081039080840390855afa158015613160573d6000803e3d6000fd5b505050602060405103519050600073ffffffffffffffffffffffffffffffffffffffff168173ffffffffffffffffffffffffffffffffffffffff16036131b457600060016000801b935093509350506131c3565b8060008060001b935093509350505b9450945094915050565b6131d5610893565b61320b576040517f8dfc202b00000000000000000000000000000000000000000000000000000000815260040160405180910390fd5b565b600081519050919050565b600082825260208201905092915050565b60005b8381101561324757808201518184015260208101905061322c565b60008484015250505050565b6000601f19601f8301169050919050565b600061326f8261320d565b6132798185613218565b9350613289818560208601613229565b61329281613253565b840191505092915050565b600060208201905081810360008301526132b78184613264565b905092915050565b6000604051905090565b600080fd5b600080fd5b600073ffffffffffffffffffffffffffffffffffffffff82169050919050565b60006132fe826132d3565b9050919050565b61330e816132f3565b811461331957600080fd5b50565b60008135905061332b81613305565b92915050565b6000819050919050565b61334481613331565b811461334f57600080fd5b50565b6000813590506133618161333b565b92915050565b6000806040838503121561337e5761337d6132c9565b5b600061338c8582860161331c565b925050602061339d85828601613352565b9150509250929050565b60008115159050919050565b6133bc816133a7565b82525050565b60006020820190506133d760008301846133b3565b92915050565b6133e681613331565b82525050565b600060208201905061340160008301846133dd565b92915050565b60006020828403121561341d5761341c6132c9565b5b600061342b84828501613352565b91505092915050565b61343d816132f3565b82525050565b60006020820190506134586000830184613434565b92915050565b600080600060608486031215613477576134766132c9565b5b60006134858682870161331c565b93505060206134968682870161331c565b92505060406134a786828701613352565b9150509250925092565b600060ff82169050919050565b6134c7816134b1565b82525050565b60006020820190506134e260008301846134be565b92915050565b600881106134f557600080fd5b50565b600081359050613507816134e8565b92915050565b600080fd5b600080fd5b7f4e487b7100000000000000000000000000000000000000000000000000000000600052604160045260246000fd5b61354f82613253565b810181811067ffffffffffffffff8211171561356e5761356d613517565b5b80604052505050565b60006135816132bf565b905061358d8282613546565b919050565b600067ffffffffffffffff8211156135ad576135ac613517565b5b6135b682613253565b9050602081019050919050565b82818337600083830152505050565b60006135e56135e084613592565b613577565b90508281526020810184848401111561360157613600613512565b5b61360c8482856135c3565b509392505050565b600082601f8301126136295761362861350d565b5b81356136398482602086016135d2565b91505092915050565b6000806000806080858703121561365c5761365b6132c9565b5b600061366a878288016134f8565b945050602061367b8782880161331c565b935050604061368c87828801613352565b925050606085013567ffffffffffffffff8111156136ad576136ac6132ce565b5b6136b987828801613614565b91505092959194509250565b6000819050919050565b6136d8816136c5565b82525050565b60006020820190506136f360008301846136cf565b92915050565b613702816136c5565b811461370d57600080fd5b50565b60008135905061371f816136f9565b92915050565b6000806000806080858703121561373f5761373e6132c9565b5b600061374d8782880161331c565b945050602061375e87828801613352565b935050604061376f87828801613352565b925050606061378087828801613710565b91505092959194509250565b6000602082840312156137a2576137a16132c9565b5b60006137b08482850161331c565b91505092915050565b6000602082840312156137cf576137ce6132c9565b5b60006137dd84828501613710565b91505092915050565b7f4e487b7100000000000000000000000000000000000000000000000000000000600052602160045260246000fd5b60088110613826576138256137e6565b5b50565b600081905061383782613815565b919050565b600061384782613829565b9050919050565b6138578161383c565b82525050565b600081519050919050565b600082825260208201905092915050565b60006138848261385d565b61388e8185613868565b935061389e818560208601613229565b6138a781613253565b840191505092915050565b600060c0820190506138c7600083018961384e565b6138d46020830188613434565b6138e160408301876133dd565b81810360608301526138f38186613879565b905061390260808301856133dd565b61390f60a08301846133b3565b979650505050505050565b60008060408385031215613931576139306132c9565b5b600061393f8582860161331c565b92505060206139508582860161331c565b9150509250929050565b60008060408385031215613971576139706132c9565b5b600061397f85828601613710565b925050602083013567ffffffffffffffff8111156139a05761399f6132ce565b5b6139ac85828601613614565b9150509250929050565b6000806000606084860312156139cf576139ce6132c9565b5b60006139dd86828701613352565b93505060206139ee8682870161331c565b92505060406139ff86828701613352565b9150509250925092565b7f4e487b7100000000000000000000000000000000000000000000000000000000600052602260045260246000fd5b60006002820490506001821680613a5057607f821691505b602082108103613a6357613a62613a09565b5b50919050565b7f4e6f7420617574686f72697a656420746f2072657175657374206f706572617460008201527f696f6e0000000000000000000000000000000000000000000000000000000000602082015250565b6000613ac5602383613218565b9150613ad082613a69565b604082019050919050565b60006020820190508181036000830152613af481613ab8565b9050919050565b7f4f6c64207369676e6572206e6f7420666f756e64000000000000000000000000600082015250565b6000613b31601483613218565b9150613b3c82613afb565b602082019050919050565b60006020820190508181036000830152613b6081613b24565b9050919050565b7f4e6577207369676e657220616c72656164792065786973747300000000000000600082015250565b6000613b9d601983613218565b9150613ba882613b67565b602082019050919050565b60006020820190508181036000830152613bcc81613b90565b9050919050565b7f43616e6e6f74207265717565737420746f207265706c6163652073656c660000600082015250565b6000613c09601e83613218565b9150613c1482613bd3565b602082019050919050565b60006020820190508181036000830152613c3881613bfc565b9050919050565b7f4e487b7100000000000000000000000000000000000000000000000000000000600052601160045260246000fd5b6000613c7982613331565b91507fffffffffffffffffffffffffffffffffffffffffffffffffffffffffffffffff8203613cab57613caa613c3f565b5b600182019050919050565b6000819050919050565b613cd1613ccc82613331565b613cb6565b82525050565b60008160f81b9050919050565b6000613cef82613cd7565b9050919050565b613d07613d028261383c565b613ce4565b82525050565b60008160601b9050919050565b6000613d2582613d0d565b9050919050565b6000613d3782613d1a565b9050919050565b613d4f613d4a826132f3565b613d2c565b82525050565b600081905092915050565b6000613d6b8261385d565b613d758185613d55565b9350613d85818560208601613229565b80840191505092915050565b6000613d9d8288613cc0565b602082019150613dad8287613cf6565b600182019150613dbd8286613d3e565b601482019150613dcd8285613cc0565b602082019150613ddd8284613d60565b91508190509695505050505050565b60008190508160005260206000209050919050565b60006020601f8301049050919050565b600082821b905092915050565b600060088302613e4e7fffffffffffffffffffffffffffffffffffffffffffffffffffffffffffffffff82613e11565b613e588683613e11565b95508019841693508086168417925050509392505050565b6000819050919050565b6000613e95613e90613e8b84613331565b613e70565b613331565b9050919050565b6000819050919050565b613eaf83613e7a565b613ec3613ebb82613e9c565b848454613e1e565b825550505050565b600090565b613ed8613ecb565b613ee3818484613ea6565b505050565b5b81811015613f0757613efc600082613ed0565b600181019050613ee9565b5050565b601f821115613f4c57613f1d81613dec565b613f2684613e01565b81016020851015613f35578190505b613f49613f4185613e01565b830182613ee8565b50505b505050565b600082821c905092915050565b6000613f6f60001984600802613f51565b1980831691505092915050565b6000613f888383613f5e565b9150826002028217905092915050565b613fa18261385d565b67ffffffffffffffff811115613fba57613fb9613517565b5b613fc48254613a38565b613fcf828285613f0b565b600060209050601f8311600181146140025760008415613ff0578287015190505b613ffa8582613f7c565b865550614062565b601f19841661401086613dec565b60005b8281101561403857848901518255600182019150602085019450602081019050614013565b868310156140555784890151614051601f891682613f5e565b8355505b6001600288020188555050505b505050505050565b600060808201905061407f6000830187613434565b61408c60208301866133dd565b818103604083015261409e8185613879565b90506140ad60608301846133dd565b95945050505050565b7f4e6f7420617574686f72697a656420746f2062726964676520696e0000000000600082015250565b60006140ec601b83613218565b91506140f7826140b6565b602082019050919050565b6000602082019050818103600083015261411b816140df565b9050919050565b7f42726964676520696e206e6f7420617661696c61626c6520696e207072652d6c60008201527f61756e6368000000000000000000000000000000000000000000000000000000602082015250565b600061417e602583613218565b915061418982614122565b604082019050919050565b600060208201905081810360008301526141ad81614171565b9050919050565b7f496e76616c696420636861696e20494400000000000000000000000000000000600082015250565b60006141ea601083613218565b91506141f5826141b4565b602082019050919050565b60006020820190508181036000830152614219816141dd565b9050919050565b7f416d6f756e742065786365656473206272696467652d696e206c696d69740000600082015250565b6000614256601e83613218565b915061426182614220565b602082019050919050565b6000602082019050818103600083015261428581614249565b9050919050565b600061429782613331565b91506142a283613331565b92508282019050808211156142ba576142b9613c3f565b5b92915050565b7f4272696467652d696e20636f6f6c646f776e206e6f74206d6574000000000000600082015250565b60006142f6601a83613218565b9150614301826142c0565b602082019050919050565b60006020820190508181036000830152614325816142e9565b9050919050565b600060408201905061434160008301856133dd565b61434e60208301846133dd565b9392505050565b7f4e487b7100000000000000000000000000000000000000000000000000000000600052603260045260246000fd5b7f4f6e6c79207369676e6572732063616e207375626d6974207369676e6174757260008201527f6573000000000000000000000000000000000000000000000000000000000000602082015250565b60006143e0602283613218565b91506143eb82614384565b604082019050919050565b6000602082019050818103600083015261440f816143d3565b9050919050565b7f4f7065726174696f6e20616c7265616479206578656375746564000000000000600082015250565b600061444c601a83613218565b915061445782614416565b602082019050919050565b6000602082019050818103600083015261447b8161443f565b9050919050565b7f5369676e617475726520616c7265616479207375626d69747465640000000000600082015250565b60006144b8601b83613218565b91506144c382614482565b602082019050919050565b600060208201905081810360008301526144e7816144ab565b9050919050565b600081905092915050565b7f19457468657265756d205369676e6564204d6573736167653a0a333200000000600082015250565b600061452f601c836144ee565b915061453a826144f9565b601c82019050919050565b6000819050919050565b61456061455b826136c5565b614545565b82525050565b600061457182614522565b915061457d828461454f565b60208201915081905092915050565b7f5369676e6174757265207369676e6572206d757374206265206d65737361676560008201527f2073656e64657200000000000000000000000000000000000000000000000000602082015250565b60006145e8602783613218565b91506145f38261458c565b604082019050919050565b60006020820190508181036000830152614617816145db565b9050919050565b7f496e76616c6964207369676e617475726520666f72205570646174655369676e60008201527f6572000000000000000000000000000000000000000000000000000000000000602082015250565b600061467a602283613218565b91506146858261461e565b604082019050919050565b600060208201905081810360008301526146a98161466d565b9050919050565b7f5369676e6572206265696e67207265706c616365642063616e6e6f742061707060008201527f726f766500000000000000000000000000000000000000000000000000000000602082015250565b600061470c602483613218565b9150614717826146b0565b604082019050919050565b6000602082019050818103600083015261473b816146ff565b9050919050565b7f456e6f756768207369676e61747572657320616c726561647900000000000000600082015250565b6000614778601983613218565b915061478382614742565b602082019050919050565b600060208201905081810360008301526147a78161476b565b9050919050565b7f496e76616c6964207369676e6174757265000000000000000000000000000000600082015250565b60006147e4601183613218565b91506147ef826147ae565b602082019050919050565b60006020820190508181036000830152614813816147d7565b9050919050565b600060608201905061482f60008301866133dd565b61483c60208301856133dd565b61484960408301846133dd565b949350505050565b600061485c82613331565b915061486783613331565b925082820390508181111561487f5761487e613c3f565b5b92915050565b7f427269646765206f7574206e6f7420617661696c61626c6520696e207072652d60008201527f6c61756e63680000000000000000000000000000000000000000000000000000602082015250565b60006148e1602683613218565b91506148ec82614885565b604082019050919050565b60006020820190508181036000830152614910816148d4565b9050919050565b600060608201905061492c60008301866133dd565b61493960208301856136cf565b61494660408301846133dd565b949350505050565b6000815461495b81613a38565b6149658186613d55565b945060018216600081146149805760018114614995576149c8565b60ff19831686528115158202860193506149c8565b61499e85613dec565b60005b838110156149c0578154818901526001820191506020810190506149a1565b838801955050505b50505092915050565b60006149dd828961454f565b6020820191506149ed8288613cf6565b6001820191506149fd8287613d3e565b601482019150614a0d8286613cc0565b602082019150614a1d828561494e565b9150614a298284613cc0565b602082019150819050979650505050505050565b600081519050614a4c8161333b565b92915050565b600060208284031215614a6857614a676132c9565b5b6000614a7684828501614a3d565b91505092915050565b7f556e6b6e6f776e206f7065726174696f6e207479706500000000000000000000600082015250565b6000614ab5601683613218565b9150614ac082614a7f565b602082019050919050565b60006020820190508181036000830152614ae481614aa8565b9050919050565b6000606082019050614b006000830186613434565b614b0d60208301856133dd565b614b1a60408301846133dd565b949350505050565b7f4d696e7420696e74657276616c206e6f74207265616368656400000000000000600082015250565b6000614b58601983613218565b9150614b6382614b22565b602082019050919050565b60006020820190508181036000830152614b8781614b4b565b9050919050565b7f4d617820737570706c7920657863656564656400000000000000000000000000600082015250565b6000614bc4601383613218565b9150614bcf82614b8e565b602082019050919050565b60006020820190508181036000830152614bf381614bb7565b9050919050565b7f496e73756666696369656e742062616c616e636520746f206275726e00000000600082015250565b6000614c30601c83613218565b9150614c3b82614bfa565b602082019050919050565b60006020820190508181036000830152614c5f81614c23565b9050919050565b7f416c726561647920696e20706f73742d6c61756e6368206d6f64650000000000600082015250565b6000614c9c601b83613218565b9150614ca782614c66565b602082019050919050565b60006020820190508181036000830152614ccb81614c8f565b9050919050565b6000604082019050614ce760008301856133b3565b614cf460208301846133dd565b9392505050565b6000608082019050614d1060008301876136cf565b614d1d60208301866134be565b614d2a60408301856136cf565b614d3760608301846136cf565b9594505050505056fea2646970667358221220c9feb89d53abce7581fad4bcd86b3459f807cfaeadd0edbab49019767ddc261a64736f6c63430008140033",
  "linkReferences": {},
  "deployedLinkReferences": {}
}